:020000040800F2
:10000000B019002021020008C31D0008671B00086A
:10001000C11D000833040008E921000800000000A9
:10002000000000000000000000000000890100083E
:100030004104000800000000CD010008CD200008A8
:100040003B0200083B0200083B0200083B0200089C
:100050003B0200083B0200083B0200083B0200088C
:100060003B0200083B0200083B0200083B0200087C
:100070003B0200083B0200083B0200083B0200086C
:100080003B0200083B0200083B020008D1210008A7
:10009000DD210008350400083B0200083B0200088F
:1000A0003B0200083B0200083B0200083B0200083C
:1000B0003B0200083B020008592100083B020008EF
:1000C0003B0200083B0200083B0200083B0200081C
:1000D0003B0200083B0200083B0200083B0200080C
:1000E0003B0200083B0200083B02000800F002F857
:1000F00000F03AF80AA090E8000C82448344AAF188
:100100000107DA4501D100F02FF8AFF2090EBAE885
:100110000F0013F0010F18BFFB1A43F0010318473B
:1001200080580000A0580000103A24BF78C878C159
:10013000FAD8520724BF30C830C144BF04680C60ED
:10014000704700000023002400250026103A28BF35
:1001500078C1FBD8520728BF30C148BF0B60704739
:100160001FB51FBD10B510BD00F02EF91146FFF7E9
:10017000F7FF02F0BFFF00F04CF903B4FFF7F2FF06
:1001800003BC00F04FF90000224B19680868B0E882
:10019000F00F80F30988BFF36F8F4FF0000080F3FA
:1001A00011884EF00D0E70470000000006480068F0
:1001B000006880F3088862B661B6BFF34F8FBFF363
:1001C0006F8F00DF00BF00BF08ED00E0EFF3098094
:1001D000BFF36F8F0F4B1A6820E9F00F106008B55E
:1001E0004FF0500080F31188BFF34F8FBFF36F8F34
:1001F00003F01EFF4FF0000080F31188BDE80840B7
:1002000019680868B0E8F00F80F30988BFF36F8FB2
:10021000704700BF18000020EFF305807047000012
:100220000948804709480047FEE7FEE7FEE7FEE78A
:10023000FEE7FEE7FEE7FEE7FEE7FEE704480549C6
:10024000054A064B7047000057210008ED000008E2
:10025000B0130020B0190020B0150020B015002008
:10026000032A40F2308010F0030C00F0158011F8E2
:10027000013BBCF1020F624498BF11F801CB00F8BA
:10028000013B38BF11F8013BA2F1040298BF00F80E
:1002900001CB38BF00F8013B11F0030300F02580CB
:1002A000083AC0F0088051F8043B083A51F804CBF2
:1002B000A0E80810F5E7121D5CBF51F8043B40F8B8
:1002C000043BAFF30080D20724BF11F8013B11F8C3
:1002D00001CB48BF11F8012B24BF00F8013B00F807
:1002E00001CB48BF00F8012B704710B5203AC0F091
:1002F0000B80B1E81850203AA0E81850B1E8185027
:10030000A0E81850BFF4F5AF5FEA027C24BFB1E863
:100310001850A0E8185044BF18C918C0BDE81040D4
:100320005FEA827C24BF51F8043B40F8043B08BFDD
:100330007047D20728BF31F8023B48BF11F8012BA4
:1003400028BF20F8023B48BF00F8012B70474FF050
:10035000000200B5134694469646203922BFA0E815
:100360000C50A0E80C50B1F12001BFF4F7AF090721
:1003700028BFA0E80C5048BF0CC05DF804EB890012
:1003800028BF40F8042B08BF704748BF20F8022B55
:1003900011F0804F18BF00F8012B7047704770476D
:1003A000704710B500F008F8006810BD10B504469D
:1003B00000F002F8046010BD004870474C130020A4
:1003C000004870474C1300207546FFF7F9FFAE4612
:1003D00005006946534620F00700854618B020B551
:1003E000FFF72CFFBDE820404FF000064FF000075C
:1003F0004FF000084FF0000B21F00701AC46ACE8CD
:10040000C009ACE8C009ACE8C009ACE8C0098D4639
:10041000704710B50446AFF300802046BDE8104099
:10042000FFF7ABBE01491820ABBEFEE72600020075
:100430007047FEE7014800F08FB900001403002068
:10044000704772B6FEE790F82020012A07D0022AF2
:1004500005D0416A41F48021416201207047006863
:1004600042690A43426100207047F0B590F820507D
:100470000468A468012D07D0022D05D0416A41F41B
:10048000802141620120F0BD04F0806504F0006627
:10049000354301D1E50053D5C4F301640125A540DE
:1004A0001D608B684FF4C0759BB1CE6805EB0417D7
:1004B00033434E6843EAC6030668F3514FF4C273F0
:1004C000076803EB04130E69FE50097D012909D06A
:1004D0000DE00E88CB6805EB041743EA4653066827
:1004E000F351EBE70168CE5846F48076CE5011798F
:1004F000D379567941EA036193791B0443EA0623D1
:1005000019434FF4C676036806EB04169951117827
:10051000D37841EA0361937852781B0443EA0222BC
:1005200011434FF4C473026803EB0413D150006805
:1005300005EB0411425842F0010242500020F0BD88
:10054000416A41F4001141620120F0BD10B502681A
:1005500090F82030012B07D0022B05D0416A41F4DE
:1005600080214162012010BDD2F8000240F001005C
:10057000C2F80002087D00F01F0301209840D2F865
:100580001C328343C2F81C32CB69B3B9D2F80C32A7
:100590008343C2F80C328C894B6864F31F434C6967
:1005A00002EBC404C4F840320C890B6864F31F43A7
:1005B0004C6902EBC404C4F84432CB69012B16D158
:1005C000D2F80C320343C2F80C320C884B6864F347
:1005D0001F434C6902EBC404C4F840320C89CB6859
:1005E00064F31F434C6902EBC404C4F844328B69C2
:1005F0007BB1D2F804320343C2F804320B6973B101
:10060000D2F814320343C2F81432096A01290CD01B
:1006100010E0D2F804328343C2F80432EEE7D2F895
:1006200014328343C2F81432EFE7D2F81C120143AC
:10063000C2F81C12D2F8000220F00100C2F8000239
:10064000002010BD704770B590F82040012C07D0F5
:10065000022C05D0416A41F480214162012070BD25
:1006600021B104682469A4072AD003E00468E4687F
:10067000A4071FD04FF4D874056804EB01142D595A
:1006800005F0040595600DB305682D59ED0855601A
:1006900005682C5904F00204D4604FF4DA7405683C
:1006A00004EB01142E5906F00F06082E13D308256B
:1006B000156114E0416A41F400114162012070BDEE
:1006C000416A41F400114162012070BD05682D5955
:1006D0006D0D1560DCE72D5905F00F0515610568F6
:1006E0002D59C5F30725956105682C59240C5461D3
:1006F0004FF4DC72046802EB0112A4581C70046809
:10070000A458240A5C700468A458240C9C700468E3
:10071000A258120EDA704FF4DE72046802EB011276
:10072000A4581C710468A458240A5C710468A45875
:10073000240C9C710468A258120EDA7131B1006861
:10074000016941F020010161002070BD0068C168AD
:1007500041F02001C160F7E72DE9F05F0546002474
:1007600028684669D0F804908768D0F80CA0D0F8C3
:1007700010B0D0F81880F10748D0F90714D0012143
:100780008160B80703D5284600F0A4FA0CE078078A
:1007900002D54FF4006407E0380702D54FF48054C7
:1007A00002E0284600F095FAF80516D529684FF4BE
:1007B00080708860B80503D5284600F08DFA0CE0FB
:1007C000780502D544F4005407E0380502D544F416
:1007D000804402E0284600F07EFAF80316D5296826
:1007E0004FF480308860B80303D5284600F076FACD
:1007F0000CE0780302D544F4004407E0380302D546
:1008000044F4803402E0284600F067FA300707D548
:100810005FEACA6004D544F4007429681020C860F7
:1008200070074FF0080707D55FEA0A7004D52868FB
:10083000C760284600F086F9B00706D52868C0686A
:10084000800702D0284600F07FF9700607D55FEADE
:10085000CB6004D544F48064296810200861B00698
:1008600007D55FEA0B7004D528680761284600F0B9
:1008700001FAF00606D528680069800702D02846EC
:1008800000F0F9F9B00308D55FEAC96005D5296819
:1008900010204860284600F0EFF9F00307D55FEA22
:1008A000097004D528684760284600F018FA30041B
:1008B00046D55FEA497040D5F00504D55FEAC870B7
:1008C00001D044F00104B00504D55FEA887001D579
:1008D00044F00204700504D55FEA487001D544F085
:1008E0000404300529D518F0700F26D008F07000E8
:1008F000402815D006DC102809D020280AD030283E
:1009000016D10AE050280ED0602811D10EE044F034
:1009100008040DE044F010040AE044F0200407E06D
:1009200044F0400404E044F0800401E044F48074A6
:100930002868816921F0700181612968042048607C
:10094000002C05D0686A204368622846FFF77AFECB
:10095000BDE8F09F70B50446002C03D094F8200049
:1009600010B104E0012070BD204600F09DF8206821
:10097000016841F00101016000F0B2FA0546052668
:100980000CE000F0ADFA401B0A2807D9606A40F479
:100990000030606284F82060012070BD20684068EB
:1009A000C007EED02068016821F00201016000F06C
:1009B00097FA05460CE000F093FA401B0A2807D985
:1009C000606A40F40030606284F82060012070BDED
:1009D000206840688007EED4207E01283FD0206840
:1009E000016821F080010160607E01283DD020680F
:1009F000016821F040010160A07E01283BD0206801
:100A0000016821F020010160E07E012839D02068D2
:100A1000016841F010010160207F012837D0206873
:100A2000016821F008010160607F012835D020684D
:100A3000016821F004010160D4E902010843D4E90E
:100A40000412114308436168491E08432168C861C4
:100A500000206062012084F82000002070BD206822
:100A6000016841F080010160BEE72068016841F043
:100A700040010160C0E72068016841F02001016089
:100A8000C2E72068016821F010010160C4E7206816
:100A9000016841F008010160C6E72068016841F083
:100AA00004010160C8E7000010B586B00021029182
:100AB00003910491059100681F4988423AD11F486B
:100AC000C16941F00071C161C16901F0007101911A
:100AD000816941F004018161806900F004000190A6
:100AE0004FF400600290164C02A9204600F0F8F87E
:100AF000A1140291022103910321059102A920462C
:100B000000F0EEF800220521132000F087FA1320F0
:100B100000F076FA00220521142000F07FFA14205C
:100B200000F06EFA00220521152000F077FA15205A
:100B300000F066FA06B010BD0064004000100240EC
:100B4000000801407047000030B585B0474B484A67
:100B50000021FFF778FD00204549444A2039135C05
:100B600021F81030401C0828F9DB41484FF480542C
:100B7000C4F100030268A0F51970A2F50072073AEB
:100B800045D0012A13D00C2A0FD100F50070384946
:100B9000006D00901022203901A8FFF761FB01A928
:100BA00033480EC92C3802F085FA05B030BDB0F8D4
:100BB0006821B0F97A51521BA24205DDD0F87421A8
:100BC000521EC0F8742106E09A4204DAD0F874216B
:100BD000521CC0F8742100F5B470028842824A8821
:100BE0000B7842EA032292B20280CB880C7943EA66
:100BF000042343804B890C7A43EA04238380097BD6
:100C00000174C168C1EB413111448160CDE7B0F896
:100C1000AC20B0F9BE50521BA24205DDD0F8B8207E
:100C2000521EC0F8B82006E09A4204DAD0F8B82084
:100C3000521CC0F8B82030F8AC2F42824A880B789A
:100C400042EA032292B20280CB880C7943EA042361
:100C500043804B890C7A43EA04238380097B017427
:100C6000C168C1EB4131114481609EE77C000020E6
:100C70003013002070477047704770B5044694F8F1
:100C80002000012805D0606A40F400206062012045
:100C900070BD022084F820002068016821F0010165
:100CA000016000F01DF905460DE000F019F9401B48
:100CB0000A2808D9606A40F400306062052084F890
:100CC0002000012070BD20684068C007EDD160623F
:100CD00070BD7047704770477047704770477047E6
:100CE0002DE9F84F00240023DFF8C4914FF00F08DE
:100CF000A9F1040B09F1040AABF1040ED1E00127BC
:100D0000A7403A40BA4275D1DFF8A8C14D68A5EBBB
:100D10000C0665452BD00DDC032D34D005DC35B336
:100D2000012D19D0022D2FD11BE0112D16D0122D1F
:100D30002AD119E0B6F5881F19D006DCB6F5803F38
:100D400015D0B6F5801F1FD111E0B6F5001F0ED0EB
:100D5000B6F5041F18D10AE0CB6815E0CB681B1D5F
:100D600012E0CB6808330FE0CB680C330CE08B68E3
:100D700023B1012B04D00823476105E0042303E0DD
:100D80000823076100E00023FF2A01D8054601E09F
:100D900000F1040502D84FEA840603E0A4F1080636
:100DA0004FEA86062F6808FA06FC27EA0C0703FAC2
:100DB00006F647EA06072F604D68ED0070D53E4DF8
:100DC000AE6946F00106AE61AD6905F0010500951A
:100DD0003A4D24F003067719BE68A5072D0F08FACF
:100DE00005FC26EA0C06DFF8D8C0604503D14FF0B9
:100DF000000C17E054E0DFF8CCC0604502D14FF0A2
:100E0000010C0FE0DFF8C0C0604502D14FF0020CCA
:100E100008E0DFF8B8C0604502D14FF0030C01E0F4
:100E20004FF0040C0CFA05FC4CEA060CC7F808C09D
:100E30004D68ED0205D5D9F800501543C9F80050AA
:100E400004E0D9F800509543C9F800504D68AD0250
:100E500005D5DAF800501543CAF8005004E0DAF876
:100E600000509543CAF800504D68AD0305D5DBF836
:100E700000501543CBF8005004E0DBF800509543D8
:100E8000CBF800504D68ED0305D5DEF80050154352
:100E9000CEF8005004E0DEF800509543CEF8005044
:100EA000641C0A6832FA04F57FF429AFBDE8F88FB4
:100EB0000804014000001110001002400000014031
:100EC00000080140000C01400010014000140140E6
:100ED000002A01D0016170470904016170470000D8
:100EE00001488068704700000800002002488168BF
:100EF00002781144816070470800002010B507484F
:100F0000016841F010010160032000F0A7F80F20F4
:100F100000F006F800F050F8002010BD002002405C
:100F200030B587B005461F48C16941F00401C16171
:100F3000C06900F00400009001A902A800F04AF97D
:100F40000598B0B100F06AF940001749B0FBF1F123
:100F5000491E1748154A026040F2E732C2604160FC
:100F6000002202618260826100F0DFFC04461CB155
:100F700015E000F053F9E8E70D4800F0FDFC0446E9
:100F80006CB91E2000F03CF8102D07D20022294633
:100F90001E2000F043F80748056000E0012407B078
:100FA000204630BD0010024040420F0000080040C3
:100FB000940300200C00002008B50F48816941F01F
:100FC00001018161816901F001010091C16941F074
:100FD0008051C161C06900F08050009000220F2153
:100FE000901E00F01BF80549486820F0E06040F0D2
:100FF0000070486008BD0000001002400000014081
:10100000002809DB00F01F02012191404009800007
:1010100000F1E020C0F8001170470000F0B40D4668
:101020000D4B1B68C3F30223C3F10704042C00D942
:101030000424191D072901D2002300E0DB1E01262C
:1010400006FA04F1491E294099409E40761E16403A
:101050003143F0BC01F0F0B80CED00E000F0070106
:10106000054A10684FF6FF03184040EA0120034983
:1010700008431060704700000CED00E00000FA0526
:101080002DE9F04704460D46002C17D0DFF83081DB
:10109000D8F8000000F00700A84211D2D8F80000EC
:1010A00020F007002843C8F80000D8F8000000F03E
:1010B0000700A84204D00120BDE8F0870120FBE72B
:1010C0002068404E810712D5400703D5706840F470
:1010D000E06070602078000703D5706840F46050CD
:1010E00070607068A16820F0F0000843706020789C
:1010F000C0072CD06068012806D0022809D03168CA
:1011000089070BD40120D7E73168890306D4012071
:10111000D2E73168890101D40120CDE7716821F05F
:10112000030101437160FFF7DBFE074641F2883996
:1011300006E0FFF7D5FEC01B484501D90320BBE7F9
:101140007068616800F00C00B0EB810FF1D1D8F845
:10115000000000F00700A8420ED9D8F8000020F0E7
:1011600007002843C8F80000D8F8000000F0070086
:10117000A84201D001209FE72078400705D570687C
:10118000E16820F4E060084370602078000706D52D
:101190007068216920F4605040EAC100706000F07E
:1011A0004DF87168084AC1F30311515CC840074902
:1011B000086007480068FFF7B3FE00207CE70000E6
:1011C0000020024000100240725700081400002066
:1011D0000C0000200F2202600B4A536803F0030347
:1011E0004360536803F0F0038360536803F4E063E3
:1011F000C360526802F46052D2080261034800687A
:1012000000F0070008607047001002400020024014
:1012100001480068704700001400002000B5FFF787
:10122000F7FF04494968044AC1F30221515CC840F0
:1012300000BD000000100240825700080E4B5968A4
:101240000E4801F00C02042A11D0082A0FD10C48D4
:10125000C1F38342805CC9030AD55968084AC1F3C7
:101260004041921E515C054A5043B0FBF1F070477B
:1012700004494843704700000010024000127A0001
:101280006257000800093D002DE9F84F0446002C84
:101290000ED02078D94DC0075ED06868C0F38100B9
:1012A00001280BD06868C0F38100022803D00CE04D
:1012B0000120BDE8F88F6868C00306D52868800360
:1012C0004AD56068A8BB0120F3E76068B0F5803FAD
:1012D00011D0A8B1B0F5A02F1BD0286820F4803021
:1012E0002860286820F480202860606830B3FFF709
:1012F000F7FD06461EE0286840F480302860F4E7D9
:10130000286820F480302860286820F48020286035
:10131000EBE7286840F480202860286840F480309B
:101320002860E2E7FFF7DCFD801B642802D9032078
:10133000BFE711E028688003F4D50DE0FFF7D0FD8A
:10134000064606E0FFF7CCFD801B642801D9032088
:10135000AFE728688003F5D42078DFF8A4828007FF
:101360004FF0010A4FF0000945D5686810F00C0FE6
:1013700007D06868C0F38100022812D16868C003F2
:101380000FD42868800704D52069012801D00120E6
:101390008FE72868616920F0F80040EAC100286002
:1013A00029E02069B8B1C8F800A0FFF799FD06460A
:1013B00006E0FFF795FD801B022801D9032078E79E
:1013C00028688007F5D52868616920F0F80040EAB0
:1013D000C10028600FE0C8F80090FFF781FD0646C5
:1013E00006E0FFF77DFD801B022801D9032060E79E
:1013F00028688007F5D42078000726D58148A169A0
:1014000099B1C0F800A0FFF76BFD064606E0FFF7B4
:1014100067FD801B022801D903204AE7686A80071C
:10142000F5D5012000F0A4FD0FE0C0F80090FFF713
:1014300057FD064606E0FFF753FD801B022801D941
:10144000032036E7686A8007F5D42078400773D513
:101450000026E869C00008D4E86940F08050E861DF
:10146000E86900F0805000900126DFF89CB1DBF8BD
:101470000000C00514D4DBF8000040F48070CBF805
:101480000000FFF72DFD074606E0FFF729FDC01B12
:10149000642801D903200CE7DBF80000C005F4D56F
:1014A000E068012812D0B0B105281DD0286A20F0CC
:1014B00001002862286A20F004002862E06841F2F6
:1014C000883B28B3FFF70CFD07461DE0286A40F073
:1014D00001002862F2E7286A20F001002862286AE9
:1014E00020F004002862E9E7286A40F0040028623E
:1014F000286A40F001002862E0E7FFF7F1FCC01B1A
:10150000584501D90320D4E6286A8007F5D50DE0B7
:10151000FFF7E6FC074606E0FFF7E2FCC01B584574
:1015200001D90320C5E6286A8007F5D4012E03D12E
:10153000E86920F08050E861E069A0B36968C1F310
:101540008101022946D0022805D0C8F86090FFF733
:10155000C7FC04463AE0C8F86090FFF7C1FC0646B5
:1015600006E0FFF7BDFC801B022801D90320A0E69E
:1015700028688001F5D4206AB0F5803F05D16868FD
:10158000A16820F4003008436860D4E908010843EA
:10159000696821F4741108436860C8F860A0FFF717
:1015A0009FFC044607E026E0FFF79AFC001B022898
:1015B00001D903207DE628688001F5D51BE0FFF7FF
:1015C0008FFC001B022801D9032072E628688001E5
:1015D000F5D410E001280CD06868226A00F480314C
:1015E000914204D1616A00F47010884203D0012056
:1015F0005FE601205DE600205BE60000001002408F
:1016000000004242800442420070004070B504462F
:10161000002C09D0606A002540B125616561A56292
:1016200094F8510040B10CE0012070BD6068B0F545
:10163000827FF4D0E561F2E784F85050204600F054
:101640003FF8022084F851002068016821F0400131
:101650000160A088218900F4827001F404410843EC
:10166000A18901F400610843217C01F002010843D3
:10167000217D01F001010843218B01F40071084331
:10168000217F01F03801084394F8201001F0800117
:101690000843218D01F40051084321680860A069C6
:1016A000042101EA1040216848602068C16921F4E2
:1016B0000061C1616565012084F85100002070BDA2
:1016C00030B585B00024019402940394049400681A
:1016D0001449884223D11448816941F480518161C1
:1016E000816901F480510091816941F004018161B7
:1016F000806900F004000090A02001900220029078
:1017000003200490094D01A92846FFF7E9FA40217A
:1017100001910294039401A92846FFF7E1FA05B06C
:1017200030BD0000003001400010024000080140C0
:101730002DE9FF4F81B004460E9E8B469846012549
:10174000002794F8500001280ED0AA4684F850A033
:10175000FFF7C6FB814694F85100616801280DD05F
:10176000B1F5827F08D103E0022005B0BDE8F08F1B
:10177000A16809B9042801D00227CFE0BBF1000F0E
:101780002DD0039858B35FEA080028D094F8510090
:10179000042802D0052084F85100002060650399D8
:1017A000A163A4F83E80A4F83C80C4F830B0A4F84B
:1017B0003680A4F83480206460642068016849069B
:1017C00003D4016841F040010160E068B0F5006FAA
:1017D00007D06068F0B3B8F1010F49D07EE001276F
:1017E0009CE0606810B1B8F1010F3AD1206B21681C
:1017F0000088C860206B801C2063E08E401EE0865D
:101800002FE02068816889070DD5E18E59B1012D3F
:1018100009D1216B0988C160206B801C2063E08E98
:10182000401EE086002520688168C9070BD0E18F43
:1018300049B1C068A16B0880A06B801CA063E08FD9
:10184000401EE0870125FFF74BFBA0EB0900B042EB
:1018500007D300E00CE0701C03D0032784F851A0EC
:101860005CE0E08E0028CCD1E08F0028C9D13BE0BD
:10187000206B216800780873206B401C2063E08E89
:10188000401EE0862AE02068816889070DD5E18E38
:1018900059B1012D09D1216B09780173206B401CCE
:1018A0002063E08E401EE086002520688168C9071D
:1018B0000BD0E18F49B1C068A16B0870A06B401CD0
:1018C000A063E08F401EE0870125FFF709FBA0EB36
:1018D0000900B04201D3701C10D17EB1E08E002807
:1018E000D1D1E08F0028CED14A463146204600F0C3
:1018F00051FB38B10127202060650FE0032784F8F1
:1019000051A00BE0A06818B92068C16880680090F9
:10191000606D08B1012701E084F851A0002084F82F
:101920005000384621E77047704710B50446002C38
:1019300003D094F83D0010B107E0012010BD002055
:1019400084F83C00204600F015F8022084F83D00A1
:10195000211D206800F006FC01203D34607260709B
:10196000A070E07020716071A071E0712072207031
:10197000002010BD7047000090F83D10012901D0F3
:1019800001207047022180F83D100168CA6842F0CA
:101990000102CA6000680E49884208D0B0F1804F49
:1019A00005D00C49884202D00B49884209D1816890
:1019B00001F00701062908D0016841F0010101602A
:1019C00003E0016841F00101016000207047000060
:1019D000002C01400004004000080040704770B532
:1019E0000446206801694FF00005C943890716D4F1
:1019F000C168C943890712D4E91E0161012020771B
:101A000020688069800703D02046FFF7E7FF05E0E4
:101A1000204600F09BF8204600F099F825772068D2
:101A20000169C943490718D4C168C943490714D497
:101A30006FF004010161022020772068806910F4B2
:101A4000407F03D02046FFF7C9FF05E0204600F0A5
:101A50007DF8204600F07BF8257720680169C943AE
:101A6000090717D4C168C943090713D46FF00801E7
:101A70000161042020772068C069800703D02046D8
:101A8000FFF7ACFF05E0204600F060F8204600F0CC
:101A90005EF8257720680169C943C90618D4C16872
:101AA000C943C90614D46FF01001016108202077E2
:101AB0002068C06910F4407F03D02046FFF78EFFF6
:101AC00005E0204600F042F8204600F040F8257777
:101AD00020680169C943C90708D1C168C943C9075A
:101AE00004D1891E0161204600F032F820680169A6
:101AF000C943090609D4C168C943090605D46FF072
:101B0000800101612046FFF70EFF20680169C9438B
:101B1000490609D4C168C943490605D46FF040019C
:101B20000161204600F01EF820680169C94389065A
:101B30000BD4C168C943890607D46FF02001016145
:101B40002046BDE87040FFF7EFBE70BD704770479C
:101B500000680349884201D1FFF7C8B97047000007
:101B6000000800407047FEE788B0434E7FE0434CDA
:101B7000002210212046FFF7ABF93F4A4FF47A715B
:101B8000521D00910423D11E3D48FFF7D1FD0122D3
:101B900010212046FFF79CF93748401D4178807896
:101BA000890141EA9000308002F0BAFE6FF00D0228
:101BB00003F05BFD0022334B02F002FF02F06AFEED
:101BC00081467061DFF8C080D8F87071376238469E
:101BD00002F08FFE0446F0680D46A9EB000002F00B
:101BE00088FE2A4A2A4B02F0EBFE2A4A2A4B02F0D0
:101BF000E7FE22462B4602F0FDFB02F04BFEB061F1
:101C0000F76103F0AFFA0446384603F0ABFA014639
:101C1000224608F5EA7000F0D5F8B8F96A0103F039
:101C2000A1FA014608F5C270D8F8F42100F0CAF80C
:101C3000D8F8A40103F050FA002300901A46194680
:101C400040F2FF1000F0CCFE0EE01C22134901A868
:101C5000FEF74BFB002101A801F073FA1049086060
:101C60001048006802F042F9012002F017F9F1680B
:101C700070698842E9D07AE79000002000080140AE
:101C80003C03002000807640CC100020E8C35CB00C
:101C9000DDA54C40B6600BB6E0DCA8408C570008D0
:101CA000040000200000002010B510480E4901601B
:101CB0000421416000218160C1604FF4A0220261D3
:101CC0004FF4801242610176012242768276C1761B
:101CD00001774177FEF73EFE002803D0BDE81040B3
:101CE000FEF7AFBB10BD00000064004014030020ED
:101CF00000B587B01C2206496846FEF7F6FA0021B7
:101D0000684601F01EFA0349086007B000BD0000F4
:101D1000445700080000002010B586B00020029053
:101D20000390049005901248816941F0200181617F
:101D3000816901F020010191816941F00401816113
:101D4000806900F0040001900A4C01221021204615
:101D5000FFF7BEF8102102910121039104910221A5
:101D6000059102A92046FEF7BBFF06B010BD00009A
:101D7000001002400008014010B510480E490160F3
:101D80004FF48271416000218160C16002220261D2
:101D900001224261520282612822C26101624162D3
:101DA00081620A21C162FFF731FC002803D0BDE83F
:101DB0001040FEF746BB10BD003001403C03002040
:101DC000FEE7FEE72DE9F04104461046226C62640E
:101DD000E26B2264A061E16103F0A0FBE063E16CCF
:101DE00003F0D8FA06D9E06CE16B80F0004003F014
:101DF000D1FA02D80020A06401E00120A06420688C
:101E000010B1012851D099E0E56B6068294603F0D4
:101E1000F5F96062A06C03F0A5F9A16803F0EEF992
:101E2000294603F0EBF9A16A03F020F80646A06208
:101E3000606BA063206B60632846216C03F06EFB2F
:101E40002063E2680146104603F0D8F9E0623046AC
:101E5000616903F09FFA02D26069A0620AE06069DA
:101E6000A16A80F0004003F095FA03D2606980F027
:101E70000040A062D4E9090102F0F8FFE16A02F033
:101E8000F5FF2062216903F085FA02D22069206201
:101E900054E02069216A80F0004003F07BFA4DD2C3
:101EA000206980F00040206248E0D4E90F652946AF
:101EB000304603F033FB616803F0A0F90746606227
:101EC000A06C03F04FF9A16803F098F9314603F0D4
:101ED00095F98046A062606BA063206B606301216E
:101EE000284603F0F0FB314603F085FA616C02F0FE
:101EF000BDFF2063E2680146104603F07FF9054606
:101F0000E0624146384602F0B1FF294602F0AEFFDA
:101F1000216A02F0ABFF2062216903F03BFA02D292
:101F2000206920620AE02069216A80F0004003F005
:101F300031FA03D2206980F0004020620020BDE821
:101F4000F081F0B505ACF0CC016042608360C46004
:101F500005614661C76400218163416301630162D9
:101F6000C1628162416241640164C163F0BD0000ED
:101F700008B507494FF4FA520968B1FBF2F1414341
:101F8000009100BF0098411E0091FAD208BD0000E8
:101F90001400002038B504460B4600920022802130
:101FA000204600F009F828B1606D40F0200060651F
:101FB000032038BD002038BD2DE9F84304460F4604
:101FC00091461E46089DFEF78BFF401B351AFEF713
:101FD00087FF804626480068C0F3CB3068430090F6
:101FE0003AE0701C38D0FEF77BFFA0EB0800A84257
:101FF00003D215B1009858B32BE02068416821F056
:10200000E00141606068B0F5827F0BD1A068B0F557
:10201000004F02D0B0F5806F04D12068016821F034
:1020200040010160A06AB0F5005F09D12068016835
:1020300021F4005101602068016841F40051016001
:10204000012050346070002020700320BDE8F88328
:1020500000250098401E00902068806837EA000044
:1020600004D000204845BCD10020EFE70120F9E76B
:102070001400002008B5134C134D124800F0F8FC72
:10208000104800F009FD0F4800F0CEFC94F8400223
:10209000022803D194F8410202280FD0D4F8E800B6
:1020A00003F01AF80646E06A03F016F80346002229
:1020B000114640F2FF10009600F092FC286901F0F2
:1020C000EDFEDAE7CC1000209000002010B5502083
:1020D00080F31188BFF34F8FBFF36F8F02F08CF83E
:1020E00018B104494FF080500860002080F3118837
:1020F00010BD000004ED00E030B58FB0282105A828
:10210000FEF725F914216846FEF721F90121059112
:102110000804069000240794099102250C950D905F
:102120004FF4E0100E9005A8FFF7AEF808B1FEF7E7
:1021300088F90F200090019502944FF4806003907D
:10214000049402216846FEF79BFF002801D0FEF7A9
:1021500078F90FB030BD70470148FFF740BC000070
:1021600094030020F0B50268164C174D174E4FF03F
:102170008047A04205D0B84203D0A84201D0B04267
:1021800003D122F070034A681A43A04205D0B84236
:1021900003D0A84201D0B04203D122F44073CA68F0
:1021A0001A434B6922F080021A4302608A68C262B5
:1021B0000A688262A04201D109690163012141617B
:1021C000F0BD0000002C0140000400400008004069
:1021D0000148FEF7C1BA0000140300200148FEF7D1
:1021E000BBBA000014030020FEE7490050EAC120FA
:1021F00018BF04204A0D18BF40F0010040F2FF72E2
:10220000B2EB515F08BF40F00200012808BF052073
:1022100070474100080218BF04200A0E18BF40F0A2
:1022200001004FF07F4232EA010108BF40F0020096
:10223000012808BF052070470907090E002804DBA4
:1022400000F1E02080F80014704700F00F0000F16A
:10225000E02080F8141D70472DE9F0414F1E00EB7F
:10226000C7010446D1E9000115461E4637F00602B3
:102270000DD02A46334602F0A3FB7F1E04EBC703B2
:10228000D3E9002302F0B6F837F00602F1D1022FAD
:1022900025D0042F13D0062F18BFBDE8F0812A46A1
:1022A000334602F08DFBD4E90A2302F0A3F82A4654
:1022B000334602F085FBD4E9082302F09BF82A4656
:1022C000334602F07DFBD4E9062302F093F82A4658
:1022D000334602F075FBD4E9042302F08BF82A465A
:1022E000334602F06DFBD4E9022302F083F82A465C
:1022F000334602F065FBD4E90023BDE8F04102F06B
:1023000079B8012203F0B1B902F074B8024A002092
:10231000110703F0AAB9000001FDFFFF00214FF0F3
:102320007E5002F017BE02F0A1BD0021084602F067
:1023300011BE61214FF0E04003F0C5B96FF05E01BE
:10234000080703F0C0B900002DE9F84F04460D4618
:1023500021F0004000917349814211DC72498842AA
:1023600001DC06D12CB120462946BDE8F84FFFF725
:10237000C8BF6E48002DCCBF6D496E49BDE8F88FCF
:102380006D49814211DD6D498142D8BF4FF0FF3662
:102390006DDD20462946FFF728FF042808BFFFF718
:1023A000B5FF20462946BDE8F88F6549654F25F001
:1023B0000045814233DD6449814219DD0026324601
:1023C0004FF080432046294602F014F880468A46A2
:1023D00001222046294603F048F900223B4602F03C
:1023E0002FFC4246534602F0C1F804460D463EE03B
:1023F00001260022BA463B462046294601F0FAFF54
:1024000080460F46002253462046294602F018FC1B
:1024100042463B4602F0AAF804460D4627E04B49E7
:1024200081421BDDDFF828A1022600225346204608
:10243000294602F0C5FA00223B4601F0DBFF804648
:102440000F46002253462046294602F0F9FB424639
:102450003B4602F08BF804460D4608E00326224670
:102460002B4600203B4902F081F804460D462246E7
:102470002B461046194602F0A3FA8B4682460246C6
:102480000B4602F09DFA07460246334888460B4643
:1024900006217844FFF7E0FE52465B4602F090FAD0
:1024A00082462E488B463A46434605217844FFF73C
:1024B000D3FE3A46434602F083FA02460B46002E0C
:1024C000504659460CDA01F095FF22462B4602F0A1
:1024D00077FA01B022462B46BDE8F04F02F0A4BBCC
:1024E00001F088FF22462B4602F06AFA1C4A7A4421
:1024F00002EBC603D3E9002302F0A2FB22462B46DF
:1025000002F09EFB174A7A4402EBC603D3E900238C
:1025100002F08AFB009A002AB8BF81F00041BDE8B2
:10252000F88F0000000010440000F07F182D445484
:10253000FB21F93FFB21F9BF0000DC3F0000203EFA
:102540000000F33F0000F03F0000E63F0080034042
:102550000000F83F0000F0BFBA34000078340000FB
:1025600016340000DE3300002DE9F04D9446CCF126
:10257000000423F000464CEA0404594F46EAD474A0
:102580009A46884621F00042BC4206D8454240EABD
:10259000050442EAD474BC4204D9BDE8F04D624659
:1025A000FFF7B2BEAAF14055A5F17F6555EA0C04CC
:1025B0000BD0022404EAAA744A4DDFF82CE144EA65
:1025C000D87452EA000B04D00CE0BDE8F04DFFF7E0
:1025D000BBBE002C14BF012CBDE8F08D022C30D006
:1025E000032C32D056EA0C0B0AD0BE4220D1BA429C
:1025F00009D126F0804622F080423346114617E08A
:1026000000291ADB25E0DFF8E4B0FB44002C04BF0E
:10261000DBE90001BDE8F08D012C02BFDBE9000120
:1026200081F00041BDE8F08D022C0AD0032C0CD0C3
:10263000BA4212D1B8F1000F0BDA2A482C49BDE892
:10264000F08D28462B49BDE8F08D28467146BDE83F
:10265000F08D24482849BDE8F08D921B12153C2AC4
:10266000C4BF204F244E10DCBAF1000FBEBF12F1E0
:102670003C0F00273E4608DB624601F077FF21F061
:102680000041FFF761FE07460E4694B1012C08BFDA
:1026900086F000460DD0194A194B022C38463146B7
:1026A00015D002F0CDFA2A46BDE8F04D114B02F0EC
:1026B000C7BA002213463846314602F0AFF804BFCD
:1026C0000220FDF773FE38463146BDE8F08D02F07A
:1026D000B7FA2A46BDE8F04D064B02F0A5BA000055
:1026E0000000F07F182D4454FB2109C07233000014
:1026F000FB21F9BFFB210940FB21F93F075C1433A3
:1027000026A6A13C2DE9F0474FF0684202EB4003BA
:102710000C460546B3F1654F3CBF02EB4102B2F1F6
:10272000654F80F0CD8000BFC0F3C752C1F3C753DF
:10273000D21A1B2A06DD10F0004F14BF87488848C4
:10274000BDE8F08712F11A0F2FDA11F0004F06D012
:1027500010F0004F0CBF83488348BDE8F087214646
:10276000284602F0F7FB0646FFF753FD042808BF92
:10277000FFF7E4FD2846FFF74CFD05462046FFF72E
:1027800048FD04463046FFF744FD042D18BF052DD3
:1027900008D1042C18BF052C04D1002804BF022046
:1027A000FDF704FE3046BDE8F0874200B2EB410F72
:1027B00025D910F0004F19BF6C4F6D4E6D4F6E4E06
:1027C000224685F0004415460A4680F00041104636
:1027D0000A1A5200B2F1807F3ED248406749DFF8C2
:1027E000A0A110F0004F18D04FF03F48384602F03B
:1027F00095FE07465146304602F090FE17E011F074
:10280000004F04BF00263746E2D010F0004F19BF3A
:102810005C4F5D4E5D4F5E4EDAE74FF07C583846B8
:1028200002F024FB07465146304602F01FFB0646E5
:102830004146284602F0E2FC214602F017FB8246A0
:102840002146404602F0DAFC294602F0D4FD51460A
:1028500002F080FB044604E02146284602F07AFBA1
:102860000446014602F0CAFC80464A4902F0C6FC12
:10287000494902F0FBFA414602F0C0FC474902F028
:10288000F5FA414602F0BAFC454902F0EFFA41463A
:1028900002F0B4FC434902F0E9FA054641462046FD
:1028A00002F0ACFC294602F0A9FC314602F0DEFA47
:1028B000214602F0DBFA3946BDE8F04702F0D6BA0D
:1028C0004FF07F42B2EB400F28BFB2EB410F03D273
:1028D000BDE8F047FFF727BD40EA01035B0008BFF2
:1028E00044F0FF410AD0B2EB400F08BFB2EB410FFA
:1028F00006D125F0804024F0804105460C4613E7C0
:10290000B2EB400F12BF5FEA410345F0FF4004F015
:1029100000413FF409AFB2EB410F12BF5FEA400242
:1029200005F0004044F0FF413FF4FEAE4A0092EA59
:1029300040033FF5F9AE002AACBF4FF09F464FF081
:102940003E56314602F05AFC05463146204602F01A
:1029500055FC044628462146E6E60000DB0FC9BFC9
:10296000DB0FC93FDB0F4940DB0F49C00000C9BF87
:1029700022AAFDB90000C93F22AAFD390060ED3E40
:10298000C30ACE37000049C022AA7DBA00004940E0
:1029900022AA7D3A2DAD65BD8FB8D53D0FB511BECC
:1029A00061C84C3EA8AAAABE00B58BB0012109910E
:1029B00000200790089101900290039004900690E7
:1029C000059001A90548FDF7C1FD02210348FDF767
:1029D0003AFD0248FEF751F90BB000BD1403002088
:1029E00030B587B00A9C0825059500250395049508
:1029F00001900B480D0A05704170110A8170C27078
:102A0000190A01714371210A8171C471A0F10C038B
:102A1000024601A90348FDF728FD07B030BD0000BC
:102A2000840000201403002010B50446D4F870017F
:102A300002F098FB014604F58C70D4F8C420FFF72F
:102A4000C1F9B4F96A0102F08DFB014604F1C80036
:102A5000D4F83821FFF7B6F9B4F9AE0002F082FBE2
:102A6000014604F10C006268BDE81040FFF7AAB906
:102A700008B590F8401202290CD190F841020228C2
:102A800008D10020034602460146009040F2FF10A4
:102A9000FFF7A6FF08BD00002DE9F04F97B0804674
:102AA000B8F93C0202F05EFB0190B8F93E0202F078
:102AB00059FB0090B8F9380202F054FB8146DFF868
:102AC000DCA400984FF0804BDAE90A4510F1FF4F83
:102AD00009D30198584506DC0198B0F1404F02D85F
:102AE00019F0FF4F03D019F0FF4F40D0CFE0484618
:102AF00002F090F98946064622462B4601F060FF17
:102B000004460D46009802F085F922462B4602F055
:102B100097F801F03DFC594600F040FBDAE90A2342
:102B200007463046494601F04BFF04460D460198E2
:102B300002F070F922462B4602F082F801F028FCE0
:102B4000594600F02BFB394602F090F901F068F885
:102B50004FF0414102F052FBC8F80400DAF81C00C3
:102B600002F000FBC8F8C40017B0BDE8F08F48467B
:102B700002F050F9CDE9151022462B4601F020FF56
:102B8000064604460F460D46009802F043F9CDE98B
:102B9000131022462B4602F053F804460D460198C6
:102BA00002F038F9CDE9111032463B4601F022FC23
:102BB00022462B46FFF7D8FCF94FFA4B3A4601F074
:102BC000FFFE0022F84B01F0F9FF60D2DDE915109D
:102BD000DAE90A2301F0F4FEDDE9133202F024F809
:102BE00001F0D6FB594600F0D9FA0446DDE915108C
:102BF000DAE90A2301F0E4FEDDE9113202F014F80B
:102C000001F0C6FB594600F0C9FA214602F02EF940
:102C100001F006F84FF0414102F0F0FAC8F8040064
:102C2000DDE91510DAE90A2301F0CAFEDDE9133205
:102C30000E46044601F0F8FF01F0AAFB0546DDE967
:102C400011102246334601F0FBFF01F0A1FB29469B
:102C5000FFF758FD02F0DEF83A46D24B01F0B0FE25
:102C60000022D24B01F0ECFFD14AD24B01F0A8FE7A
:102C700004460D46DAF81C0001F03BFE22462B46C6
:102C800001F0DEFF01F084FBC8F8C4006CE719F026
:102C9000FF4F7DD1484602F0BDF8CDE90F10DAE9CB
:102CA0000A2301F08DFE064604460F460D460098A5
:102CB00002F0B0F8CDE90D1022462B4601F0C0FF1E
:102CC00004460D46019802F0A5F8CDE90B103246F6
:102CD0003B4601F0B5FF22462B46FFF745FCB04FBF
:102CE000B54B3A4601F06CFE0022AF4B01F066FF97
:102CF00062D2DDE90F10DAE90A2301F061FEDDE9B5
:102D00000D3201F091FF01F043FB594600F046FA05
:102D10000446DDE90F10DAE90A2301F051FEDDE98E
:102D20000B3201F081FF01F033FB594600F036FA17
:102D3000214602F09BF800F073FF4FF0414102F092
:102D40005DFAC8F80400DDE90F10DAE90A2301F0A2
:102D500037FEDDE90D320E46044601F065FF01F055
:102D600017FB0546DDE90B102246334601F068FFEC
:102D700001F00EFB2946FFF7C5FC02F04BF83A467E
:102D8000884B01F01DFE0022884B01F033FB00E070
:102D900012E0874A874B01F013FE04460D46DAF82D
:102DA0001C0001F0A6FD22462B4601F049FF01F070
:102DB000EFFAC8F8C400D7E6B9F5000F76DB48464D
:102DC00002F028F80A91DAE90A23064601F0F8FD34
:102DD00004460D46009802F01DF8814622462B4617
:102DE000099101F02DFF01F0D3FA4FF0804100F07E
:102DF000D5F90A99DAE90A238346304601F0E0FD65
:102E000004460D46019802F005F8074622462B4677
:102E1000089101F015FF01F0BBFA4FF0804100F07E
:102E2000BDF9594602F022F800F0FAFE4FF0414198
:102E300002F0E4F9C8F804000A99DAE90A233046F6
:102E400001F0BEFD0E46044602460B46484609996F
:102E500001F0F6FE01F09CFA05462246334638465C
:102E6000089901F0EDFE01F093FA2946FFF74AFCBC
:102E700001F0D0FF4A4A4B4B01F0A2FD00224B4B20
:102E800001F0B8FA4A4A4B4B01F09AFD04460D4650
:102E9000DAF81C0001F02DFD22462B4601F0D0FE91
:102EA00001F076FAC8F8C4005EE6FFE719F1FF4FBB
:102EB00072D3484601F0AEFF0791DAE90A230646CD
:102EC00001F07EFD04460D46009801F0A3FF814607
:102ED00022462B46069101F0B3FE01F059FA4FF05D
:102EE000804100F05BF90799DAE90A23834630460E
:102EF00001F066FD04460D46019801F08BFF074680
:102F000022462B46059101F09BFE01F041FA4FF05D
:102F1000804100F043F9594601F0A8FF00F080FE1F
:102F2000032102F0D0FBC8F80400DAF81C0001F01D
:102F3000E0FC0D460799DAE90A230446304601F021
:102F40003FFD8A46064602460B464846069901F072
:102F500077FE01F01DFA8146324653463846059900
:102F600001F06EFE01F014FA4946FFF7CBFB80F04A
:102F7000004001F04FFF0E4A0E4B01F021FD084AC0
:102F8000084B01F01DFD22462B4601F033FA01F0FB
:102F9000FFF9C8F8C400E7E510E000009000002049
:102FA000E8C35CB0DDA54C4000005740008066409F
:102FB000B6600BB6E0DCA840DDA54CC0484601F089
:102FC00029FF0491DAE90A23064601F0F9FC0446D8
:102FD0000D46009801F01EFF814622462B460391C4
:102FE00001F02EFE01F0D4F94FF0804100F0D6F848
:102FF0000499DAE90A238346304601F0E1FC0446ED
:103000000D46019801F006FF074622462B46029125
:1030100001F016FE01F0BCF94FF0804100F0BEF85F
:10302000594601F023FF00F0FBFD032102F04BFBAA
:10303000C8F80400DAF81C0001F05BFC0D460499A6
:10304000DAE90A230446304601F0BAFC8A4606460D
:1030500002460B464846039901F0F2FD01F098F94B
:103060008146324653463846029901F0E9FD01F0A7
:103070008FF94946FFF746FB80F0004001F0CAFE99
:10308000084A094B01F09CFC084A094B01F098FCE6
:1030900022462B4601F0AEF901F07AF9C8F8C400D7
:1030A00062E50000B6600BB6E0DCA840E8C35CB0A7
:1030B000DDA54C400FB4BDF80610BDF8042041EA70
:1030C00002210180BDF80A10BDF8082041EA022162
:1030D0008180BDF80E10BDF80C2041EA0221C180AC
:1030E000BDF810100A09027201F00F01417204B01C
:1030F00070470000FDF702FFFEF7FEFFFEF70CFE33
:10310000FEF7D2FDFEF738FE07480068016841F07F
:1031100040010160FFF748FC00F098FDFEF7E8FD74
:1031200000F00AF8FEE700003C0300200146002002
:10313000842900D0C81C704710B500F02DFF002076
:1031400010BD7FB504460D466169B4F90800002939
:1031500010D0A16971B1FFF7E9FFD4E90521CDE9EC
:1031600001210090D4E900102B46226901F016F8E5
:10317000039010E0FFF7DAFF03A9CDE90001208AF0
:103180002B4682B2D4E9001000F0D6FF012802D00D
:10319000002004B070BD0398FBE700002DE9F04D5E
:1031A0000E460023A0F5000C4FF00071354684B0A8
:1031B00002464FF07E5401EB45014FF07F48BCF1D1
:1031C000FE4F80F09F81B1F1804FC0F0DB81FE495E
:1031D0000144B1F5005F40F2A78200F58021C90CDF
:1031E00001F00F07C1F307117F39A2EBC15501EBC5
:1031F000030B384601F0B6FF6FF0030102F063FAEB
:103200004FF07E5101F032FE01460290284602F056
:1032100085F901902846029901F028FE00F5006A20
:103220006FF30B0A00905146029802F077F9294695
:1032300001F01CFE02904FF07E50009901F08AFED2
:1032400001460090019801F0D9FF00F500656FF389
:103250000B052846029901F0D1FF029051462846FD
:1032600001F0CCFF019902F0C6F8029902F056F97C
:10327000009901F0C3FF01460190284601F0F6FDD8
:103280000146029001F0BAFF8246D04901F0B6FF34
:10329000CF4901F0EBFD514601F0B0FF824600211D
:1032A000284602F010FA00905146029801F0A6FF5D
:1032B00005460021019802F006FA294601F0D6FDE4
:1032C00082460146009801F0D1FD00F500656FF3DC
:1032D0000B052946009802F021F9514601F0C6FD80
:1032E0008246BC49284601F089FF0090BA49504601
:1032F00001F084FF8246B949284601F07FFF51461C
:1033000001F0B4FD82460146009801F0AFFD00F5E2
:1033100000656FF30B052946009802F0FFF851464F
:1033200001F0A4FD8246AE48784450F8371000EB17
:10333000C700019147684FEA0B1001F013FF00909E
:103340003946504601F092FD294601F08FFD019962
:1033500001F08CFD009901F089FD00F5006B6FF321
:103360000B0B5846009902F0D9F8019902F0D6F8F3
:10337000294602F0D3F8394602F0D0F8514602F05F
:103380003AF806F5006782466FF30B073946304678
:1033900002F0C4F80021009008464FF0000000F051
:1033A0000C063946584601F029FF054620F000403A
:1033B000B0F18B4F0ADDB8EB400F07D34FF08B40D5
:1033C00060F31E052F464FF0000A1FE038460099B3
:1033D00001F04CFD514601F011FF07465846009997
:1033E00001F00CFF394601F041FD824601462846B6
:1033F00001F03CFD00F500676FF30B0739462846E6
:1034000002F08CF8514601F031FD824631460C2025
:103410004FF000005146384601F028FD01F078FEDB
:103420000646051101F09EFE394601F0E4FF5146C3
:1034300001F01CFD07466B4901F0E0FE6A4901F00E
:1034400015FD394601F0DAFE684901F00FFD3946F5
:1034500001F0D4FE0146664806F00F06784450F8A5
:10346000260001F0CBFE6349794451F8261001F0A3
:10347000FDFC6149794451F8261001F0F7FC05F193
:103480007D01FC2908D2294602F01DF904B021462D
:10349000BDE8F04D01F0B2BE05F1BF01B1F5BF7F4F
:1034A00016D8294602F00FF9214601F0A7FE05467D
:1034B000B8EB450F1AD068000CD02846FEF7A9FEDD
:1034C000042808BFFEF73AFF284604B0BDE8F08D97
:1034D000002D0BDA0220FCF769FFFEF72FFF0146F3
:1034E000204604B061F31E00BDE8F08D0220FCF719
:1034F0005DFFFEF71EFF0146204604B061F31E008B
:10350000BDE8F08DB1F1804F3CD300BF00F1FF4129
:10351000B1F1FE4F21D200BF20F00042C5F3C751E8
:1035200010467F290DDB9729BFF651AEC1F19601F8
:103530004FF0010C0CFA01F1A1F1010C1CEA050F8E
:1035400007D00120FCF732FF04B0BDE8F04DFEF7D4
:10355000ECBE294218BF294C39E641001CBF4FF090
:103560008071B1EB400F09D91B2102F0ACF8024683
:103570006FF01A0310F0004FCED128E6BCF1FE4FD9
:1035800018D224E6B1F1007F0ED336F0004105D009
:1035900006F0004141F0FC552E46B7E7410018BF48
:1035A000B8EB400F78D8B1E7B1F1807F38BFA5F50F
:1035B0000006ABD320F000416FF0FF4C104C01EB44
:1035C0000C03A3422FD31DE0001080C07EE24C3ECE
:1035D000ABAAAA3E00B038423BAA3842D49AB8BB44
:1035E0007C240000FC596337C9FF753A1872313DDD
:1035F00048240000FC230000B0230000000080BF2E
:10360000FFFF3F0025F000439C44A4450BD3B0F1DD
:103610007E5F18BF5FEA450C3ED0B1F1FF4F98BF07
:10362000B3F1FF4F05D904B03146BDE8F04DFEF7C8
:103630007ABEB0F1FF4F0FD0C5F3C7517F2909DB28
:10364000972911DAC1F19601012202FA01F14A1E0D
:103650002A4205D0002108E015F0004F55D128E09E
:10366000294218BF012100D1022110F5000F14D00A
:1036700020B3B0F1004F27D010F1814F4ED04FF062
:10368000FE41B1EB400F94BF01200020012101EB6E
:10369000E571884239D10CE040E015F0004F02D0CE
:1036A000012936D031E0012902BF3F4804B0BDE80E
:1036B000F08D4FF0FF4004B0BDE8F08D15F00040F4
:1036C0000ED104B0BDE8F08DB5F1FF4F1DD015F55A
:1036D000000F05D015F0004F14D009B1012907D013
:1036E0000220FCF763FE04B0BDE8F04DFEF716BE05
:1036F0000220FCF75BFEFEF711FE04B080F00040F4
:10370000BDE8F08D09B1012903D004B00020BDE867
:10371000F08D04B04FF00040BDE8F08D04B04FF0E4
:103720007E50BDE8F08D00BF4FF07E5101F0F6FEF7
:1037300005466FF0010101F0C6FF1C4901F05BFE78
:10374000294601F05BFD4FF07C5101F054FE074625
:103750002946084601F052FD80F00040394601F04C
:103760004DFD82461249284601F048FD07461149A1
:10377000504601F043FD82460F49284601F03EFDC8
:10378000514601F073FB05460146384601F06EFBD9
:1037900000F5006B6FF30B0B5946384601F0BEFE87
:1037A000294601F063FBECE5000080FFABAAAA3ECE
:1037B00000B0B8413BAAB841D49A38BB2DE9F041DA
:1037C00004460F46174E75693068001D00F0A0FAD8
:1037D00038B9306890F82C1001208840B1698143D5
:1037E000B161601C07D137B13168BDE8F041091DF6
:1037F0000D4800F0D1BA2C4430684460AC4206D287
:103800003168B068091DBDE8F04100F0ADBA31681B
:103810007068091D00F0A8FA306B844200D234634E
:10382000BDE8F08118000020B804002070B50446FF
:1038300000F0BEFA1C4D2869401C2861286810B1B0
:10384000E86938B10CE02C602869012808D100F043
:10385000F1F805E02868E16AC06A884200D82C6067
:10386000E86A401CE862E06A0121AA6981401143CC
:10387000A9610E4900EB800001EB8000211D00F0E2
:103880008BFA00F0B5FAE86900280CD02868E16AE4
:10389000C06A884207D206494FF080500860BFF3E3
:1038A0004F8FBFF36F8F70BD18000020DC03002026
:1038B00004ED00E070B50C4D0C4E11E000F078FA0C
:1038C000F068C468201D00F023FA2869401E2861B2
:1038D000E868401EE86000F08BFA204600F008F827
:1038E000E8680028EAD170BD18000020A404002078
:1038F00010B5044694F8510000280BD0012811D0CF
:10390000022814D0502080F31188BFF34F8FBFF3EB
:103910006F8FFEE7206B00F081FA2046BDE8104073
:1039200000F07CBA2046BDE8104000F077BA10BD28
:103930004FF440610F48420706D0C01D20F0070039
:103940000C49411AC1F540610B4A106000235360D5
:103950000144083921F00701103A11604B600B60F7
:103960000B1A436001604068906050604FF0004067
:10397000D0607047CC04002064000020074E4FF058
:103980008054074DFFF796FF30680128FAD92C6064
:10399000BFF34F8FBFF36F8FF4E70000DC0300200D
:1039A00004ED00E02DE9F0478146DDE908570A9C67
:1039B0009846521E206B00EB820020F0070670072D
:1039C00007D0502080F31188BFF34F8FBFF36F8F64
:1039D000FEE7002023180A5C83F834200A5C12B149
:1039E000401C1028F6D34FF0000A84F843A0072D9E
:1039F00000D30625E5626564C4F848A0201D00F0E8
:103A0000B0F904F1180000F0ACF92461C5F1070029
:103A1000A0616462C4F84CA084F850A042464946B4
:103A2000304600F0EFF82060002F00D03C60BDE889
:103A3000F087000070B50024124D04EB840005EB04
:103A4000800000F083F9641C072CF6D30D488C30FD
:103A500000F07CF90B48A03000F078F90948B43048
:103A600000F074F90748C83000F070F90548DC3000
:103A700000F06CF9034904488C31416014318160D5
:103A800070BD0000DC0300201800002030B5134991
:103A900000E011460A688242FBD34B685C188442FE
:103AA00003D140681844486008460D6844682318EC
:103AB000AB420DD1094B103B1B689A4206D05268AD
:103AC000224442600A681268026002E0036000E07B
:103AD0000260814200D0086030BD00006400002018
:103AE000074841680968002905D04168C968C96864
:103AF0004968016370474FF0FF3101637047000070
:103B00001800002009484068401C07D0502080F36E
:103B10001188BFF34F8FBFF36F8FFEE7502080F304
:103B20001188BFF34F8FBFF36F8FFEE76C0000204B
:103B30002DE9F0410546002600F072FA304F386852
:103B400008B9FFF7F5FEF86805424AD18DB108358E
:103B500068070ED005F00700C0F1080005446807AB
:103B600007D0502080F31188BFF34F8FBFF36F8FC2
:103B7000FEE7B5B37868854233D82149103108464D
:103B8000046801E0214604466068A84202D2206829
:103B90000028F7D13868844223D00E6808362068A0
:103BA00008606068411B10290ED96019420707D0D0
:103BB000502080F31188BFF34F8FBFF36F8FFEE764
:103BC00041606560FFF762FF61687868401A78605D
:103BD000BA68904200D2B860F86801436160002082
:103BE000206000F06FFB700707D0502080F3118831
:103BF000BFF34F8FBFF36F8FFEE73046BDE8F08114
:103C00005400002020384FF08073C36121F001017F
:103C100081610249416140F820297047053B000855
:103C200070B5054601F0F2FB044620F00040C0F1FB
:103C3000FF40C00F08D025F00040C0F1FF40C00F8A
:103C400004BF0120FCF7B2FB204670BD2DE9FF4107
:103C5000224D2349CDE901151F480022009203900F
:103C60004FF07E531F4A00211F48FEF76AF91F4C90
:103C70001F4E204FCDE900461B48CDE902540023DA
:103C80003A461946BC30FEF75CF91B484FF07F51AD
:103C9000CDE90010CDE902540023184A194618480E
:103CA000FEF74FF9CDE900461548CDE9025400234F
:103CB0003A4619466C30FEF744F912481249CDE9EC
:103CC0000010CDE902540E480023104A1946BC30BA
:103CD000FEF737F9BDE8FF810000FA4300004844D1
:103CE00000606A4600002041D81000200000A0407B
:103CF00000A00C460000104100009049CDCCCC3E05
:103D0000E411002000A08C49A69B443B27A0893BDE
:103D10000169D0E901329A60D0E901235A604A680A
:103D2000824201D182684A60002202610868401E16
:103D30000860086870470000034B036003F15400FB
:103D40000860802010607047C000002000F108016A
:103D500041604FF0FF328260C1600161002101606B
:103D6000704700210161704730B50C68621C02D0B9
:103D700000F1080202E0026904E01A4653681D6877
:103D8000A542FAD953684B6099608A605160086116
:103D90000168491C016030BD42684A6093688B60CD
:103DA00093685960916008610168491C016070471F
:103DB000502080F31188BFF34F8FBFF36F8F0A49F4
:103DC0004868401C486001280CD10848006810F081
:103DD000FF0F07D0502080F31188BFF34F8FBFF340
:103DE0006F8FFEE7704700006C00002004ED00E0DC
:103DF00009494868002806D0401E4860002801D1C3
:103E000080F311887047502080F31188BFF34F8FE3
:103E1000BFF36F8FFEE700006C00002070B5002834
:103E200027D008380446134D6068E968084207D176
:103E3000502080F31188BFF34F8FBFF36F8FFEE7E1
:103E400022683AB1502080F31188BFF34F8FBFF33F
:103E50006F8FFEE78843606000F0E2F86068696891
:103E6000084468602046FFF711FEBDE8704000F08E
:103E700029BA70BD540000204FF0E02000210161FC
:103E8000816105494FF47A720968B1FBF2F1491E6C
:103E900041610721016170471400002010B50246FE
:103EA0000020002A12D00F48806B38B1502080F3D8
:103EB0001188BFF34F8FBFF36F8FFEE700F0B0F8AC
:103EC00000211046FFF77AFC00F0FCF9002807D12A
:103ED00005494FF080500860BFF34F8FBFF36F8FDD
:103EE00010BD00001800002004ED00E070B504468D
:103EF000FFF75EFF254D04B92C68201DFFF708FF72
:103F000058B9E06A224A00EB800152F8211021B929
:103F100001218140A8698843A861A06A18B104F111
:103F20001800FFF7F5FEE86A401CE8622868844242
:103F300008D11748211DC830FFF72EFFE868401C44
:103F4000E86007E02869401E28612046FFF7D0FCA2
:103F5000FFF7C6FDFFF74CFFE869002814D028687A
:103F6000844211D1A86B38B1502080F31188BFF37F
:103F70004F8FBFF36F8FFEE706494FF08050086008
:103F8000BFF34F8FBFF36F8F70BD0000180000208C
:103F9000DC03002004ED00E010B586B00024059499
:103FA000049403AA04A905A8FFF7C6FEDDE90410DE
:103FB000CDE900410290002315A11748039A00F0B3
:103FC000EDF81649486308B1012000E000200128FF
:103FD00009D0401C19D1502080F31188BFF34F8FB6
:103FE000BFF36F8FFEE7502080F31188BFF34F8F30
:103FF000BFF36F8F4FF0FF3008630120C8614C6141
:1040000006B0BDE8104000F043B806B010BD000097
:1040100049444C45000000007D390008180000208C
:104020000248816B491C8163704700001800002022
:10403000154A906B002802D0012050627047002082
:1040400050629069B0FA80F0C0F11F000F4900EB98
:10405000800051F8203073B101EB8000416849685D
:10406000416000F10803994201D14968416040680C
:10407000C06810607047502080F31188BFF34F8FE5
:10408000BFF36F8FFEE7000018000020DC03002064
:104090001CB5264908780190FF2008700878009028
:1040A0009DF800009DF8002000F0F000904207D03D
:1040B000502080F31188BFF34F8FBFF36F8FFEE75F
:1040C0009DF800001A4B00F050001870072098600F
:1040D00006E09868401E98609DF80000400000903F
:1040E0009DF800000006F4D49868032807D05020FB
:1040F00080F31188BFF34F8FBFF36F8FFEE74FF44C
:1041000040709860019808700A48016841F4700195
:104110000160016841F070410160FFF7ADFE0020D1
:104120005860FCF743F800201CBD000000E400E0EC
:104130006C00002020ED00E02DE9FF5F8146DDE905
:104140000E788A4616469B46B000FFF7F1FC0546FE
:1041500028000AD05420FFF7EBFC04460CB125637D
:1041600004E02846FFF75AFE00E000249CB100203E
:1041700084F85100CDE90240CDE900785B46324633
:1041800051464846FFF70EFC2046FFF74FFB012043
:1041900004B0BDE8F09F4FF0FF30F9E7F0B585B00F
:1041A0000746DDE90A600C9C002815D0E4B15425CF
:1041B00003952063022084F85100002004ADCDE96E
:1041C0000240CDE900653846FFF7ECFB2046FFF7DB
:1041D0002DFB049805B0F0BD502080F31188BFF38B
:1041E0004F8FBFF36F8FFEE7502080F31188BFF32E
:1041F0004F8FBFF36F8FFEE72DE9F04100262F4F61
:10420000B86B002808D0386A401C3862786A00B160
:1042100001263046BDE8F0817D696D1C7D619DB948
:104220007868006838B1502080F31188BFF34F8F51
:10423000BFF36F8FFEE77868B9687960B860B86AD5
:10424000401CB862FFF74CFC386BDFF87480854285
:104250000DD37868006838B17868C068C468606851
:1042600085420ED2386302E04FF0FF303863386881
:10427000C06A00EB800058F820000128C6D901264A
:10428000C4E7201DFFF744FDA06A18B104F118002F
:10429000FFF73EFDE06A0121BA6981401143B9612F
:1042A00000EB800008EB8000211DFFF775FDE06A40
:1042B0003968C96A8842CCD30126CAE718000020B1
:1042C000DC0300202DE9F041002400272D4DA86BD0
:1042D000002807D0FFF76CFDA86B401EA863A86BF1
:1042E00040B14AE0502080F31188BFF34F8FBFF3F5
:1042F0006F8FFEE72869E8B3DFF88C8001261EE0A7
:10430000D8F80C00C46804F11800FFF701FD201D67
:10431000FFF7FEFCE06AAA6906FA00F11143A96101
:10432000194900EB8000B43901EB8000211DFFF733
:1043300033FDE06A2968C96A884200D36E62D8F802
:1043400000000028DCD10CB1FFF7CAFB2C6A44B195
:10435000FFF752FF00B16E62641E002CF8D10020FE
:104360002862686A30B10127084938070860BFF33E
:104370004F8F00E001E0BFF36F8FFFF739FD384644
:10438000BDE8F081180000209004002004ED00E05A
:1043900021F00042A2F16052B2F5801F01F000430B
:1043A00028BFD2F17F6C0BD95FEA001C43EAC2023E
:1043B00042EB507018BF704728BF20F001007047D3
:1043C000B2F5801FBCBF184670474FEA410C1CF580
:1043D000001F02D2084600F0D8BF70B500F09AFB6B
:1043E00000000089FFF7F6BF4FF00040A0F5800005
:1043F0007047000010B591EA030F48BF83F00043F7
:1044000000F12684841A71EB030C05D2121943EBD8
:104410000C03001B61EB0C01DFF824E14FEA11549F
:10442000A4EB135C1EEA430F18BF9EEA445F73D0EF
:1044300023EA0E03DCF1200E21EA045143F4801339
:1044400032D322FA0CFE10EB0E0023FA0CFE41EBE5
:104450000E01CCF1200E03FA0EFE10EB0E0051F10E
:104460000001B1F5801FCCF1200E32D201EB0451D6
:1044700012FA0EF2BDE8104058BF7047401C38BF1A
:104480005FEA420218BF7047002814BF20F0010005
:1044900041F100014FEA410313F5001F38BF704797
:1044A000A1F1C04100F084BB012A43EB0302ACF14F
:1044B000200CDCF11F0E32BF4FF0000E23FA0CF37C
:1044C00010EB030041EB0451B4EB115FD0D0A1EB32
:1044D000045101F5801149085FEA300001EB0451F5
:1044E0000ED350F1000038BF12FA0EFE08D1BDE81D
:1044F0001040C9E7401C38BF5FEA4202CAD1C3E797
:10450000BDE810404FEA410313F5001F38BF704764
:10451000A1F1C04100F04CBB9EEA445F08D011EA13
:104520005E0FBDE8104004BF01F00041002070475D
:10453000BDE8104070B500F0EDFA00BF64FBBE3E70
:104540000000E0FF02494FF0000001F05CB800BF3E
:104550000000F87F491058BFC1F140415B1058BFBF
:10456000C3F140438B42EFF3008070472DE9C04117
:1045700030B4DFF8A0C23CEA111418BF3CEA1314AF
:1045800000F0EC8081EA03051CEA111444EAD574BA
:1045900018BF1CEA131500F0C780A4EB05044FF008
:1045A000004545EAC12145EAC32341EA505143EAA7
:1045B000525304F17F74994204F500344FEAC0204D
:1045C0004FEAC22208BF904200F09C804FEA136578
:1045D0000FF24016765D4FEA134506FB05F7C7F16B
:1045E000807706FB07F74FEAD737A7FB03687642C9
:1045F000C8F58038A7FB06CE38BFA8F1010807FB35
:1046000008E64FF0000EA6FB028CE6FB03CEDCF1C1
:10461000000CCEF1004E38BFAEF1010EA6FB0C58D7
:104620004FF000074FF00005E6FB0E87A1FB08C620
:10463000A0FB07CE16EB0E0645F10005E1FB076572
:1046400015F1E04E7EBFA4F580345FEA46066D4169
:1046500016F1800745F100054FEA17274FEA066675
:1046600047EA0567A6F1DE46B6F1805F4FEA1525F9
:104670001FD9384624F0010C05EBC471BCF1FE6F64
:1046800001EB0C1102D8F0BCBDE8008124425CBFF4
:1046900001F5801E9EEAC47F02D4F0BCBDE8008113
:1046A000244238D4F0BCA1F1C041BDE8004100F083
:1046B0007FBA4FEAD22242EA43524FEAD323A7FB02
:1046C00002864FEAD02040EA415007FB03661EEA0B
:1046D0000E0F4FEAD12105FB026658BFA6EB00562C
:1046E000B6EB00564FEA520E4EEAC37E18EB0E0EA2
:1046F00056EB530EBDD518EB02085E417F1C55F1F9
:104700000005B6E74FF480154FF000074FF00006A4
:104710004FF00008ADE7F0BC4FF0000001F1C041E0
:1047200001F00041BDE8008111EA0C1F0CEA1315ED
:1047300000D00CE013EA0C1F00F025804FF00000C1
:10474000F0BC81EA030101F00041BDE80081F0BC4A
:10475000BDE8004181EA030100F02ABAF0BCBDE8DF
:10476000004170B500F0D6F9097EFC3E00F007B8B4
:1047700081EA03014FF0000001F00041704781EA37
:10478000030100F015BAF0BCBDE800414FF0000095
:1047900021497047FFFDFBF9F7F5F4F2F0EEEDEB80
:1047A000E9E8E6E4E3E1E0DEDDDBDAD8D7D5D4D32F
:1047B000D1D0CFCDCCCBCAC8C7C6C5C4C2C1C0BF7B
:1047C000BEBDBCBBBAB9B8B7B6B5B4B3B2B1B0AF81
:1047D000AEADACABAAA9A8A8A7A6A5A4A3A3A2A165
:1047E000A09F9F9E9D9C9C9B9A9999989797969520
:1047F00095949393929191908F8F8E8E8D8C8C8BBC
:104800008B8A898988888787868585848483838243
:10481000828181800000FF070000F87F51EA030CCD
:1048200017D41CF5801F58BFBCF5801F00F106800F
:10483000994218BF704708BF9042704707D711F5DB
:10484000801F58BF13F5801F19D4994270478942C1
:1048500070471CF5801F08D5BCF5801FF7D58B422B
:1048600018BF704708BF824270474FF4001C1CEB12
:10487000410F38BF1CEB430F01D28B42704770B51C
:1048800000F048F9922449004FF000514FF0805356
:10489000FFF760BE4FEA41034FEA5353A3F580632D
:1048A000D3F11E03C8BFD3F1210C0CDD4FF0004241
:1048B00042EAC12242EA505232FA03FC8CEAE17C1D
:1048C000ACEBE1707047102BC4BF0020704703F5BC
:1048D000787CBCF1FF3F04D06FF0004282EA2100F7
:1048E000704770B500F016F9499224800020704797
:1048F000F2E710F0004248BF4042B0FA80F310FAED
:1049000003F10AD0C3F11D0303F580634FEA415060
:1049100002EB035202EBD12170474FF000007047C9
:10492000B0FA80F310FA03F10AD0C3F11D0303F5C6
:1049300080634FEA41504FEA035202EBD1217047A6
:104940004FF000007047000051EA030C17D41CF52B
:10495000801F58BFBCF5801F00F10680994218BF28
:10496000704708BF9042704707D711F5801F58BFA6
:1049700013F5801F19D499427047894270471CF57E
:10498000801F08D5BCF5801FF7D58B4218BF704734
:1049900008BF824270474FF4001C1CEB410F38BF28
:1049A0001CEB430F01D28B42704770B500F0B2F898
:1049B000922449004FF000514FF08053FFF7CABDD9
:1049C000DFF848C170B51CEA111E1EBF1CEA1315A2
:1049D0009EEA0C0F95EA0C0F00F06F8081EA030449
:1049E00023EA4C134EEAD47E21EA4C1141F48011A3
:1049F00043F48013AE44A1FB024CA0FB0365AEF16F
:104A00007F7E361955EB0C05A1FB034C4CF10003DE
:104A1000A0FB021C16EB0C06654153F10003094292
:104A200018BF46F0010613F4007F0BD14FEA0331A3
:104A30004FEA0530340341EA155140EA16506FF051
:104A400003020AE04FEAC3214FEAC520F40241EA1B
:104A5000555140EA56506FF0020202EB2E4201EB34
:104A6000025585EACE710AD05FEA440C18BF24F0E3
:104A7000004450F1000041F1000120EAD47040F2FE
:104A8000FE7C624500D270BDA84214BF4FF0804446
:104A90004FF04044002E08BF0024BEF1806FA8BF35
:104AA000A1F1C041BDE8704080F282804FF000006B
:104AB00001F1C04101F0004170479EEA0C0F0CEA81
:104AC000131518BF95EA0C0F06D04FF0000081EACD
:104AD000030E0EF0004170BD00F01CF88900013E8D
:104AE00000F007B800F009B84FEA430C5FEA5C5CDD
:104AF00008D081EA030100F05BB84FEA410C5FEA9D
:104B00005C5CF6D14FF00000014970470000FF07E0
:104B10000000F87F0EF1020E2EF0030E5EF8046B1B
:104B2000364205D4012A43EB030515F5001F12D8C0
:104B3000012841EB010C1CF5001F0CD80ED14FEAE7
:104B4000D17C15F5001F0CEB4C0C0CF1020C08BFCE
:104B50004CEBD37C04E04FF0080C01E04FEAD37C2F
:104B60000CEB4C0526FA05F606F00706B6F1040C28
:104B700006D20EEB860CBDE870404CF0010C60478D
:104B8000DFE80CF0090B02024FF000414FF000008B
:104B9000A1F5002170BD19461046012851EB010412
:104BA00018BFD4F5001484BF002001F0004170BD8F
:104BB0000808A0F500114FEA3101704753EA010CD3
:104BC00017D41CF5801F58BFBCF5801F00F106806C
:104BD0008B4218BF704708BF8242704707D713F552
:104BE000801F58BF11F5801F19D48B4270479B421C
:104BF00070471CF5801F08D5BCF5801FF7D599427A
:104C000018BF704708BF904270474FF4001C1CEB60
:104C1000430F38BF1CEB410F01D2994270470FB4CC
:104C20000CBC03BCFFF7C1BE91EA030F10B581F0C5
:104C300000413FF5E7AB83F0004300F009B8000006
:104C400010B591EA030F48BF83F000433FF5DAAB9C
:104C5000841A71EB030C07D212198CF0004C43EB51
:104C60000C03001B61EB0C01DFF8A4E14FEA1154C7
:104C7000A4EB135C1EEA430F18BF9EEA445F00F0EA
:104C8000B08023EA6E03524221EA0451C3EB6E0363
:104C900038BF5B1EDCF1200E25D322FA0CFE10EB90
:104CA0000E0043FA0CFE41EB0E01CCF1200E03FA8C
:104CB0000EFE10EB0E0051F10001CCF1200E29D4B4
:104CC00012FA0EF201EB0451BDE8104058BF7047D4
:104CD000401C1CBFB2F1004F704700280CBF491C9C
:104CE00020F00100704712EB020E43EB030218BFE5
:104CF0004FF0010E4EEA4202ACF1200CDCF11E0E28
:104D000054D943FA0CFE10EB0E0051F1FF31CCF1F7
:104D10001E0ED5D50EF1010E12FA0EFE404141EBEA
:104D2000010101EB445C5FEA5C5C10D910EBDE70C2
:104D300001EB045138BFBEF1004FBDE8104018BF71
:104D4000704700280CBF491C20F00100704730D28A
:104D50004FEAD42C11F5001124F400641BD0B1FAF1
:104D600081F20B3AA41AA41ED2F12003914030FA2A
:104D700003F31943904001EBCC71002C01EB04517B
:104D8000BDE81040A8BF704701F1C0414FF00000DE
:104D900001F000417047B0FA80F310FA03F100D13E
:104DA00010BDE41A173C4805C90AE4E701EB0451B9
:104DB00010BD491001EB0451BDE810404FEA30002E
:104DC00002E04FF0000170474A0008BF0042F8D0EF
:104DD000B2F5001F28BF704701F000414FF00000FE
:104DE00070479EEA445F07D011EA5E0FBDE81040AD
:104DF00004BF002100207047BDE8104070B5FFF7E8
:104E000089FE00BF40DFF63E83F000411046704748
:104E10000000E0FF43004FEAD30C4FEA3C0C434054
:104E20001FBF40070CF1605113F0FE4F70471CF09C
:104E3000006F03D100200CF0004170470CF00043DC
:104E400043EA507010B540EACC0000F058FA00BFB9
:104E5000000000924FEA0001FFF7AABE4FF00041A8
:104E60004FF00000A1F500217047000090EA010F0B
:104E700048BF81F0004100F15883421A3CBF801ABC
:104E800089184FEAD0524FF07F4C1CEA410FA2EB39
:104E9000D15318BF9CEA026F00F03B804FF0004CEA
:104EA0004CEA00204CEA012121FA03FC10EB0C0C27
:104EB0001ED202F1FF325FEA1C2040EBC25038BF25
:104EC00070471CF07F0F4FEA400C18BFBCF17F4FBA
:104ED00038BF7047C3F12003994008BF20F001009C
:104EE000BCF17F4F38BF7047A0F1C04000F04DBA11
:104EF0004FEA3C00000A40EBC25028BF1CF0FF0FF5
:104F00004FEA400CE6D018BFBCF17F4F38BF704766
:104F1000EAE79CEA026F05D010EA5C0F08BF00F0D8
:104F20000040704710B500F0EAF900BF64FBBE3ED8
:104F3000014800F068BB00BF0000C07F401058BFB0
:104F4000C0F14040491058BFC1F140418142EFF3E8
:104F5000008070474FF47F0C1CEAD0121EBF1CEA81
:104F6000D11392EA0C0F93EA0C0F00F0858090EABF
:104F7000010F48BF42F4807240F4000C41F400007D
:104F80002CF07F4120F07F4000B58142A2EB03026C
:104F90000FF2081CACEB504EC0F100009EF800E090
:104FA0004FEA4E0E00FB0EFC38BF49004FEA2C1CA6
:104FB00002F5FA020CFB0EF34FEACE1E4FEA112C5B
:104FC0004FEAC1210EEB635E42EB22420EFB0CFC6A
:104FD0004FEA1C5300FB03114FEA112C4FEA013139
:104FE0000EFB0CFC4FEADC4C00FB0C11C14228BF4D
:104FF00009184CEB03335DF804EB10EB410143EB74
:10500000C250B2F57C0F38BF704729D512F0F00FAF
:105010001CBF00F1C04000F0004070470081828357
:105020008485868788898B8C8D8E8F9192939596B7
:1050300097999A9C9D9FA0A2A3A5A7A8AAACAEB041
:10504000B2B3B5B7B9BCBEC0C2C5C7C9CCCED1D446
:10505000D7D9DCDFE2E6E9ECF0F3F7FAFE00000076
:105060004FEA400C0CF1807CBCF17E4F28BF7047AA
:10507000B0F1C04000F089B990EA010F0CEAD113F9
:1050800048BF42F48072624538BF634507D213F4CB
:105090007F0F16D080EA010000F00040704710B585
:1050A00000F02DF9097EFC3E00F005B880EA010011
:1050B00000F00040704780EA010000F0004000F07E
:1050C00064B912F47F0F04BF0248704780EA010000
:1050D00000F05BB90000C07F41000B0ED3F19E02CF
:1050E00008D950F400034FEA032323FA02F048BF23
:1050F0004042704710B500F002F900BF4992248089
:10510000002070476FF0004282EA200070470000E4
:1051100041000B0ED3F19E0216D950F400034FEA62
:10512000032333FA02FC0AD363FA02F383EA0C0383
:1051300093F0004F0CF1010C08BF2CF0010C5CEA5D
:10514000100028BF4042704710B500F0D8F800BFEB
:1051500049922480002070476FF0004282EA2000CC
:105160007047000010F0004148BF4042B0FA80F3A1
:1051700010FA03F2C3F19D030BD051EAC35101EBC6
:105180001220530638BF704700F1010008BF20F01D
:105190000100704750EA010C00F113801CF5000F6C
:1051A00058BFBCF5000F01D48842704707D710F5EF
:1051B000000F58BF11F5000F15D48842704789427F
:1051C00070471CF5000F04D5BCF5000FF7D58142E0
:1051D00070474FF0807C1CEB400F38BF1CEB410F39
:1051E00001D28142704710B500F089F8922449003D
:1051F0004FF000504FF08051FFF7A0BE4FF47F0CEE
:105200001CEAD0121EBF1CEAD11392EA0C0F93EADB
:105210000C0F00F0478090EA010F48BF42F4807203
:105220004FF0004C4CEA00204CEA012102EB030253
:10523000A0FB0113A2F50002002918BF43F00103EF
:105240005B0028BF4FEA330342EB22425FEA132C94
:105250004CEBC2502EBFBCEB436FB2F57C0F7047D6
:105260004FEA036CBCF1004F08BF20F00100B2F51B
:105270007C0F38BF70470BD582F0FF0212F5803FDC
:10528000C8BF704700F1C040D8BF00F00040704771
:1052900000F5000C5FEA4C0C48BF7047B0F1C0400D
:1052A00000F073B890EA010F0CEAD11348BF42F442
:1052B0008072624538BF634504D280EA010000F085
:1052C0000040704710B500F01AF800BF8900013E99
:1052D00000F007B800F009B85FEA410C5FEA1C6C07
:1052E00008D080EA010000F050B85FEA400C5FEAA5
:1052F0001C6CF6D14FF00040A0F5800070470EF115
:10530000020E2EF0030E5EF8044B244204D44FEA42
:105310004102B2F17F4F11D84FEA4003B3F17F4F02
:105320000CD80ED14FEAD07CB2F17F4F0CEB4C0C75
:105330000CF1020C08BF4CEBD17C04E04FF0080CE0
:1053400001E04FEAD17C0CEB4C0324FA03F404F0A7
:105350000704B4F1040C06D20EEB840CBDE8104037
:105360004CF0010C6047DFE80CF0070802024FF038
:105370000040A0F5800010BD0846420018BFD2F1E1
:10538000807288BF00F0004010BDFF2141EAD0507C
:10539000C005704751EA000C00F113801CF5000FA6
:1053A00058BFBCF5000F01D48142704707D711F5F3
:1053B000000F58BF10F5000F15D481427047894285
:1053C00070471CF5000F04D5BCF5000FF7D58842D7
:1053D00070474FF0807C1CEB410F38BF1CEB400F37
:1053E00001D28842704780EA010081EA000180EA28
:1053F0000100FFF7F8BE80F0004090EA010F7FF552
:105400003CAD81F0004100F090B800004FEAD0516F
:10541000002988BFD1F1FF0240F2758001F17D01C2
:105420004FEA002070B5490840F0004038BF4008FE
:105430000EA2430E040CD25C02FB02F304FB03F346
:10544000C3F14043A3FB0254ED0D45EA442202FBA5
:1054500002F3A0FB03546D42C4F1404438BF641E04
:10546000A2FB05350023E2FB0453EA0B42EA434268
:10547000A0FB023212F14004A2F12103E40903F07F
:105480007F031F2B32D904EBC15070BDFEFAF7F336
:10549000F0ECE9E6E4E1DEDCD9D7D4D2D0CECCCA58
:1054A000C8C6C4C2C1BFBDBCBAB9B7B6B4B3B2B046
:1054B000AFAEACABAAA9A8A7A6A4A3A2A1A09F9E89
:1054C0009E9D9C9B9A999897979695949393929169
:1054D00090908F8E8E8D8C8C8B8A8A898988878715
:1054E00086868584848383828281818004FB04F69E
:1054F000B6EB004603D5E64248BF641CC3E7A642AC
:1055000058BF641CBFE711F0FF0F02D100F000404C
:10551000704710B5FFF7F3FE7FDBFFBE90EA010F87
:1055200048BF81F000413FF5A8AC421A04D882F090
:105530000042A0EB020011444FEAD0524FF07F4CE2
:105540001CEA410FA2EBD15318BF9CEA026F4AD06C
:105550004FF0004C4CEA00204CEA012121FA03FCF8
:10556000B0EB0C0C0FD412F0FE0F36D05FEA4C00FB
:105570001DD5001240EBC25038BF70471CF03F0FE2
:1055800018BF70470BE0A2F101025FEA1C2040EB5C
:10559000C25038BF70471CF07F0F18BF7047C3F16F
:1055A0002003994014BF401E20F00100704780087E
:1055B0004FEA122308BF7047B0FA80FCA2EB0C023E
:1055C000CCF1280C60FA0CF093EA122F04BF00EB28
:1055D000C25070474FEAC3707047130A5FEADC108D
:1055E00008BF7047F6E79CEA026F04D010EA5C0F30
:1055F00008BF0020704710B5FFF781FE40DFF63E80
:1056000081F0004070470CF00F03092B08BF082001
:1056100000F07F800A2B0BD0082B18BF704708BF03
:105620001CF0400F0AD04FF000004FF0000170470F
:105630001CF0400F18BF4FF0004070471CF0100FD7
:1056400008D020F0704300F07F4242EAD3014FEAD5
:105650004370704700F0604021F07F4242EA000250
:1056600001F07F4040EA727070474FF0FF0C4CF43D
:10567000E06C1CEA11531CBF9CEA030C9445C2BFAA
:10568000DA4201EB02517047002B0DD0BCF1000F44
:105690000FD0002A01F00041A4BF41F0E04141F0E9
:1056A0007F614FF00000704701F000414FF00000B3
:1056B000704750EA01334FF09B0C18BF4CF0806CE0
:1056C0007EF440AF70474FF0FF0212EAD0521CBF89
:1056D00092F0FF038B42C2BFD14200EBC150704732
:1056E000002A0AD0002B0BD0002900F00040A4BFF4
:1056F00040F0FE4040F40000704700F0004070476A
:1057000043024FF00B0C18BF4CF0806C7FF410ACD0
:1057100070471CF4801F11D01CF4E02F03D06FEAF7
:10572000CC31490070474FF04050EFF3008222F037
:10573000704242EA000282F3008870474FF0000096
:105740007047000088590008691B0008020000002B
:1057500000000000800000000000000000000000C9
:10576000010202030405060708090A0B0C0D0E0FBF
:1057700010100000000000000000010203040607F2
:105780000809000000000102030400009459000809
:1057900075200008000000000000000080000000EC
:1057A00000000000000000000000000000000000F9
:1057B0000000B33FB2BE7D3A00002E40DFCF51382B
:1057C00000007E40BF51FABA00E0A44019DAC3BA23
:1057D00000E0C840C2ED8AB90040EB40CD1F2CBAB2
:1057E000001006412AFFFABA00C01541DFCFD137B9
:1057F00000D024419A97703A0050334189478E3641
:1058000000404141E75B9D3800B04E41C00A98B965
:1058100000A05B41558F943A00306841DA92C0BADB
:105820000040744162B3C63A0000803F00A0853F4B
:1058300000908B3F00C0913F0030983F00F09E3FAA
:1058400000F0A53F0050AD3F0000B53F0000BD3F58
:105850000060C53F0020CE3F0040D73F00C0E03F82
:1058600000C0EA3F0020F53F000000007D36AC3963
:105870007D3C3839EBDCF438320A7E39124C26395B
:105880009B6AED39A4EE83397F661E39F6398A3971
:105890002B426539A48211395B991F39C3EECD398A
:1058A000DDE7C637A5A22F390000803FC3AA853F98
:1058B000C2958B3FD3C3913FF037983F32F59E3F5F
:1058C000D7FEA53F3F58AD3FF304B53FA408BD3F09
:1058D0002A67C53F8C24CE3FFD44D73FDFCCE03F55
:1058E000C7C0EA3F7D25F53F4FBB610567ACDD3F93
:1058F000182D4454FB21E93F9BF681D20B73EF3FF7
:10590000182D4454FB21F93FE2652F227F2B7A3C6E
:10591000075C143326A6813CBDCBF07A8807703C27
:10592000075C143326A6913CC4EB98999999C9BF9A
:10593000711623FEC671BCBF6D9A74AFF2B0B3BFCF
:105940009AFDDE522DDEADBF2F6C6A2C44B4A2BF8F
:105950000D5555555555D53FFF8300922449C23FFB
:105960006E204CC5CD45B73F513DD0A0660DB13F2F
:10597000EB0D76244B7BA93F11DA22E33AAD903F41
:1059800000000000000000004D545F3638313654EE
:1059900061736B0064656661756C745461736B0050
:1059A000C059000800000020C000000028010008C5
:1059B000805A0008C0000020F018000044010008D0
:1059C00000000000000000000100000010000000C6
:1059D000000000000024F4000000000000000000AF
:1059E00000000000000000000000000000000000B7
:1059F00000000000000000000000000000000000A7
:105A00000000000000000000000000000000000096
:105A10000000000000000000000000000000000086
:105A20000000000000000000000000000000000076
:105A3000AAAAAAAA000000000000000000000000BE
:105A40000000000000000000000000000000000056
:105A5000000083848500000000000000CB000000EF
:105A60000100000000000000000000000000000035
:105A70000000000000000000A4C519C39CA0E63F80
:04000005080000ED02
:00000001FF
